:030000000208CD26
:0C08CD00787FE4F6D8FD75810D0208006C
:10080000E4F508F509D2967F047E001208A1C2968D
:100810007F247E001208A10509E50970020508D3AE
:100820009432E508940040DDE4F508F50912089BD0
:10083000C2967F257E001208A10509E50970020510
:1008400008D39432E508940040E3E4F508F509D2B2
:10085000967F027E001208A1C2967F267E001208B3
:10086000A10509E50970020508D39432E508940052
:1008700040DDE4F508F509D3E5099432E508940074
:10088000400302080012089BC2967F257E001208D2
:0B089000A10509E50970E0050880DC07
:06089B00D2967F037E00EF
:1008A100E4F50AF50BC3E50B9FE50A9E501DE4F53F
:1008B1000CF50D050DE50D7002050C643D450C7040
:0C08C100F2050BE50B70DE050A80DA2260
:00000001FF
