:0300000002087A79
:0C087A00787FE4F6D8FD75810D020800BF
:10080000E4F508F509D2967FE87E0312084E120837
:10081000480509E50970020508D39432E5089400FB
:1008200040E3E4F508F509D3E5099432E5089400BE
:1008300050CED2967FD07E0712084E120848050986
:08084000E50970E3050880DF03
:06084800C2967F257E0030
:10084E00E4F50AF50BC3E50B9FE50A9E501DE4F592
:10085E000CF50D050DE50D7002050C643D450C7093
:0C086E00F2050BE50B70DE050A80DA22B3
:00000001FF
