:03000000020922D0
:0C092200787FE4F6D8FD75810D02080016
:10080000E4F508F509D2967F027E001208F6C2963A
:100810007FE87E031208F60509E50970020508D392
:100820009432E508940040DDE4F508F509D2967F9E
:10083000037E001208F61208F00509E509700205AA
:1008400008D39432E508940040E3E4F508F509D2B2
:10085000967F047E001208F6C2967FD07E071208AB
:10086000F60509E50970020508D39432E5089400FD
:1008700040DD750800750932D3E5099400E5089458
:1008800000501CD2967F037E001208F6C2967FD0DD
:100890007E071208F6E509150970DD150880D9757F
:1008A0000800750932D3E5099400E5089400501654
:1008B000D2967F047E001208F61208F0E5091509A9
:1008C00070E3150880DF750800750932D3E50994D7
:1008D00000E50894004003020800D2967F027E00E3
:1008E0001208F61208F0E509150970E0150880DC19
:0608F000C2967FDC7E05CC
:1008F600E4F50AF50BC3E50B9FE50A9E501DE4F5EA
:100906000CF50D050DE50D7002050C643D450C70EA
:0C091600F2050BE50B70DE050A80DA220A
:00000001FF
