:030000000208B241
:0C08B200787FE4F6D8FD7581090208008B
:10080000E4F508F5091208730509E5097002050801
:10081000C394C8E508940040EC120856E4F508F5C6
:10082000091208880509E50970020508C39464E502
:1008300008940040EC120856E4F508F50912089DEA
:100840000509E50970020508C39464E508940040B1
:06085000EC12085680AA1C
:10087300758901758CFB758A7FD28C308DFDB2969C
:05088300C28DC28C22B1
:10088800758901758CFA758A99D28C308DFDB2966E
:05089800C28DC28C229C
:10089D00758901758CF9758AB3D28C308DFDB29640
:0508AD00C28DC28C2287
:10085600E4FFFEE4FDFC0DBD00010CED64784C7078
:0C086600F50FBF00010EEF64784E70E744
:010872002263
:00000001FF
